:100000000C946B000C9493000C9493000C9493004C
:100010000C9493000C9493000C9493000C94930014
:100020000C9493000C9493000C9493000C94930004
:100030000C9493000C9493000C9493000C949300F4
:100040000C94A2120C9493000C9420140C946E1433
:100050000C9493000C9493000C9493000C949300D4
:100060000C9493000C9493000000000024002700DF
:100070002A0000000000250028002B0000000000DE
:1000800023002600290004040404040404040202DA
:100090000202020203030303030301020408102007
:1000A0004080010204081020010204081020000012
:1000B0000007000201000003040600000000000029
:1000C00000001B017C04DE04AD07CC08C40A9D0CB3
:1000D000DA153C16140111241FBECFEFD8E0DEBFA5
:1000E000CDBF14E0A0E0B1E0EEEFF7E302C0059071
:1000F0000D92AC30B107D9F715E0ACE0B4E001C027
:100100001D92AB39B107E1F710E0C4EDD0E004C0B7
:100110002297FE010E94EE1BC23CD107C9F70E9444
:10012000A4160C94F21B0C940000FB01DC0102C02D
:1001300001900D9241505040D8F70895FB01DC0129
:1001400001900D920020E1F70895FB015191552394
:10015000A9F0BF01DC014D9145174111E1F759F4B8
:10016000CD010190002049F04D9140154111C9F396
:10017000FB014111EFCF81E090E0019708950F93CB
:100180008130910509F045C06F5F7F4F09F04AC08B
:1001900082E994E060E040E020E000E00E94301658
:1001A0008CE094E060EC48EA21E001EB0E9430161C
:1001B00082E194E06FEF4FEF2FEF00E00E943016E6
:1001C00088E194E060EC48EA21E00EEF0E943016EE
:1001D0008EE194E06FEC4AE323E902E40E943016DA
:1001E00084E294E061E846E02FE00EE10E943016E0
:1001F0008AE594E060E071E00E945C1981E694E099
:100200000E948E0D8CE794E060E570E00E94A20AE7
:1002100009C0892B39F46F5F7F4F21F48AE594E0A0
:100220000E948F190F91089580E090E06FEF7FEFAB
:100230000E94BF00089581E090E06FEF7FEF0E9481
:10024000BF000895EF92FF920F931F93DF93CF9318
:1002500000D000D000D0CDB7DEB72AE2E22E24E0F5
:10026000F22E20E3F70111922A95E9F723EE20936D
:100270002A0410922B0426E020932C042CEE2093C9
:100280002D0431E3309336042EE420933704309369
:10029000380424E32093390429E034E03A832983A5
:1002A000FC0182819381A481B5818B839C83AD8382
:1002B000BE8301E614E0C801BE016F5F7F4F4BE7CC
:1002C00050E00E94850DC801B70140E350E00E9454
:1002D000650DC8010E94800D26960FB6F894DEBF0A
:1002E0000FBECDBFCF91DF911F910F91FF90EF9087
:1002F0000895EF92FF920F931F93E0908604F09081
:10030000870400918804109189040E94EA122091C8
:100310008E0430918F044091900450919104621B9F
:10032000730B840B950B28EE33E040E050E00E9405
:10033000CA1B2E0D3F1D401F511FB901CA011F913D
:100340000F91FF90EF90089580919D0390919E03EF
:10035000892B29F010929E0310929D0306C081E024
:1003600090E090939E0380939D0380919D039091D4
:100370009E03892BF1F50E9479012091820430912E
:100380008304409184045091850426173707480759
:1003900059077CF587E060E00E94CB130E94790149
:1003A0006F5F7F4F8F4F9F4F60939F037093A003AA
:1003B0008093A1039093A2030E9479016B5F7F4F0A
:1003C0008F4F9F4F609382047093830480938404C3
:1003D0009093850440919F035091A0036091A103E5
:1003E0007091A2038FE695E02AE030E00E94FA17B0
:1003F000089587E061E00E94CB138FEF9FEFAFEF8E
:10040000BFE780939F039093A003A093A103B093B1
:10041000A2030895EF92FF920F931F93DF93CF9360
:10042000CDB7DEB727970FB6F894DEBF0FBECDBFAE
:100430008E010F5F1F4FC80164E372E00E945C19D8
:100440008AE594E0B8010E949E187C01C8010E94D0
:100450008F19F7FC02C00E94A40127960FB6F894EA
:10046000DEBF0FBECDBFCF91DF911F910F91FF90E7
:10047000EF900895CF92DF92EF92FF920F931F9328
:10048000F82EE92E30E0C32E31E0D32EB6010E94C3
:100490005C198F2D9E2D65E472E00E9419198F2D35
:1004A0009E2D65E572E00E9419198F2D9E2D6CE539
:1004B00072E00E9419198F2D9E2D63E672E00E9452
:1004C00019198F2D9E2D60E872E00E9419198F2D49
:1004D0009E2D68E872E00E9419198F2D9E2D6FE8FD
:1004E00072E00E9419198F2D9E2D6BEA72E00E9416
:1004F00019198F2D9E2D63ED72E00E9419198F2D11
:100500009E2D67EE72E00E9419190E940A028F2D3B
:100510009E2D63E373E00E9419198F2D9E2D6BE3CE
:1005200073E00E9419198F2D9E2D63E473E00E94E1
:1005300019190AE514E08FE695E0B8010E94211828
:10054000C801B6010E9476198F2D9E2D1F910F9123
:10055000FF90EF90DF90CF900895EF92FF920F936E
:100560001F9384E294E00E94220168EE73E080E031
:1005700090E00E94F81281E694E00E94110D892B10
:1005800099F181E694E06AE274E040E350E00E9471
:10059000C30C80915204609153040E9468187C013E
:1005A00080915404609155040E94681800E010E0A6
:1005B0008701FF24EE24A0E0B0E0E82AF92A0A2B04
:1005C0001B2B8FE695E0B801A7012AE030E00E94DE
:1005D000941780E891E8A5E5BCE7E80EF91E0A1F2C
:1005E0001B1FB701C80100C01F910F91FF90EF9032
:1005F00008950E94AD0260938604709387048093EF
:10060000880490938904645D7E4F8F4F9F4F609361
:100610008A0470938B0480938C0490938D040E94C1
:10062000EA1260938E0470938F04809390049093E9
:1006300091040895EF92FF920F931F93DF93CF934E
:10064000CDB7DEB727970FB6F894DEBF0FBECDBF8C
:10065000F82EE92E14C08F2D9E2D0E949009892B13
:10066000F1F18F2D9E2D0E947409082F8AE594E0E8
:10067000602F0E9406190A3079F5112311F411E058
:100680002EC08FE695E06BE473E00E940E188F2D6C
:100690009E2D67E573E00E940E188F2D9E2D67E654
:1006A00073E00E940E188F2D9E2D6FE773E00E945D
:1006B0000E188F2D9E2D0E94E5168E010F5F1F4F85
:1006C000C8010E943A028F2D9E2DB8010E94541835
:1006D000C8010E948F190AC00D3009F010E08F2D5B
:1006E0009E2D0E94E408882309F0B5CF61E070E0F8
:1006F00080E090E00E94F8128F2D9E2D0E94080944
:1007000027960FB6F894DEBF0FBECDBFCF91DF9115
:100710001F910F91FF90EF9008950F931F93DF9318
:10072000CF93CDB7DEB76A970FB6F894DEBF0FBE92
:10073000CDBF8E010F5F1F4FC8016CE774E00E94B0
:10074000900BC8010E94C4088823F1F08B819C8122
:10075000998B888B8D819E81AF81B8858A8B9B8B8D
:10076000AC8BBD8B89859A85AB85BC858E8B9F8B29
:10077000A88FB98F8FEA93E09F878E878D858A8FA8
:10078000CE010E960E941A030E94790120918A04DC
:1007900030918B0440918C0450918D046217730743
:1007A0008407950714F00E94F9020E9479012091B4
:1007B0009F033091A0034091A1035091A2032617FB
:1007C00037074807590744F40E94A4018FE695E0D3
:1007D00061E973E00E940E186A960FB6F894DEBFC6
:1007E0000FBECDBFCF91DF911F910F9108950F9351
:1007F0001F93DF93CF93CDB7DEB762970FB6F89410
:10080000DEBF0FBECDBF29E034E03A83298380915B
:100810000E0490910F04A0911004B09111048B83E9
:100820009C83AD83BE8338872F838091140490917D
:100830001504A0911604B091170489879A87AB8795
:10084000BC873E872D8780911A0490911B04A0914C
:100850001C04B0911D048F87988BA98BBA8B8CEAEE
:1008600094E067E973E0AE014F5F5F4F9E01295F3F
:100870003F4F8E01035F1F4F0E940D088CE794E0ED
:100880000E94080C8FE695E040E855E260E070E0D9
:100890000E94A91487E061E00E948C1387E061E068
:1008A0000E94CB1381E694E066E579E00E94290E70
:1008B0000E94F90262960FB6F894DEBF0FBECDBF5C
:1008C000CF91DF911F910F9108958AE061E00E941E
:1008D000CB138AE061E00E948C138CB580618CBDE3
:1008E0008CB580648CBD8DE061E00E948C138BE040
:1008F00061E00E948C1308950F9388E994E060E012
:1009000040E020E000E00E9430160F9108959C0125
:10091000FB0182819381A481B581F9018283938354
:10092000A483B583178216820895CF93DF93FB01CA
:1009300001C0319680818823E1F7EB01A0E0B0E0AF
:1009400020E030E021C06E3261F42F3F310509F024
:100950007CF5FA01EA0FFB1F2283119620E030E0BC
:1009600012C0C901E3E0880F991FEA95E1F7220F51
:10097000331F820F931F262F332727FD30952053D7
:100980003040280F391F21966881662319F0A43062
:10099000B105CCF22F3F310509F054F4A430B10574
:1009A0003CF4A40FB51F12962C9321E030E002C056
:1009B00020E030E0C901DF91CF9108950F938EE9D7
:1009C00094E060E040E020E000E00E9430160F91EB
:1009D00008952F923F924F925F926F927F928F92E3
:1009E0009F92AF92BF92CF92DF92EF92FF920F93BE
:1009F0001F93DF93CF93CDB7DEB769970FB6F89407
:100A0000DEBF0FBECDBF4C018B011A010E94EA125E
:100A10002B013C01F8E0EF2EF12CE80CF91C5801F9
:100A2000CC24DD2414C00E94EA12641975098609D9
:100A30009709A616B706C806D90618F42FEF3FEF98
:100A40000BC162E370E080E090E00E94F812C70101
:100A50000E94110D1816190634F7F4012281338112
:100A600044815581818D928DA38DB48D8A879B871A
:100A7000AC87BD87281739074A075B0709F0EAC02A
:100A8000858D968DC59709F0E5C000C18E01025F86
:100A90001F4FC701B8014CE050E00E94C30CF801A1
:100AA000528143815B834A83F401268137818E859D
:100AB0009F852817390711F457FD06C0C7010E940A
:100AC0008B0C2CEF3FEFC8C04F705270452B31F0AC
:100AD000C7010E948B0C2BEF3FEFBEC0F801768060
:100AE00067806114710441F0AA24BB2448012E01DF
:100AF0000894411C511C28C0C7010E948B0C2AEF8E
:100B00003FEFAAC0C701B20141E050E00E94C30C10
:100B10008981882321F408C0C7010E94E60C8981DD
:100B2000815089838F5FC1F78981882359F700E05D
:100B300010E0C7010E94E60C0F5F1F4F0430110543
:100B4000C1F70894A11CB11CF401D480C580AC1479
:100B5000BD04C0F244245524C701BE016F5F7F4F1E
:100B600041E050E00E94C30C9981892F807C61F4A0
:100B7000992321F40DC0C7010E94E60C89818150A0
:100B800089838F5FC1F704C0C7010E94E60C1982F8
:100B90008981882309F7C701BE016C5F7F4F42E05E
:100BA00050E00E94C30CC701BE016A5F7F4F42E064
:100BB00050E00E94C30C00E010E0C7010E94E60C68
:100BC0000F5F1F4F04301105C1F7C701BE016E5FF3
:100BD0007F4F42E050E00E94C30CDC80CD80F1E00A
:100BE000CF16D10419F5BE80AF8081E0A816B104FC
:100BF000E9F49A818B81049731F0C7010E948B0C34
:100C000027EF3FEF29C0E2E0F0E02E0E3F1EC701C4
:100C1000B10144E050E00E94C30C21E030E01CC070
:100C2000C7010E94E60C0F5F1F4F02C000E010E0FA
:100C30009A808B800815190598F30894411C511C63
:100C40004614570408F488CFC7010E948B0C26EF86
:100C50003FEF02C02EEF3FEFC90169960FB6F8943F
:100C6000DEBF0FBECDBFCF91DF911F910F91FF90DF
:100C7000EF90DF90CF90BF90AF909F908F907F903C
:100C80006F905F904F903F902F90089589E094E08F
:100C900099878887C7010E946F0C0C970CF0F6CEDD
:100CA0002DEF3FEFD9CF6F927F928F929F92AF92AD
:100CB000BF92CF92DF92EF92FF920F931F93DF9339
:100CC000CF9300D00F92CDB7DEB78C01F62EE72E72
:100CD0000E94EA12F80177836683B8E0CB2ED12C0C
:100CE000C00ED11E0A5F1F4FC601B80142E050E09E
:100CF0000E94650D81E090E09B838A83A2E08A2EAA
:100D0000912C8C0E9D1EC601B40142E050E00E9461
:100D1000650D80E091E09B838A83C601B40142E0C7
:100D200050E00E94650D1B821A82C601B40142E0A8
:100D300050E00E94650DC601B40142E050E00E94FF
:100D4000650DC601B40142E050E00E94650D2F2DF3
:100D50003E2DC9018C017C013E010894611C711C6F
:100D600020C00894E11CF11CF7018081882311F058
:100D70008E32B9F75701A01AB10A1A141B0474F481
:100D80008E2D801B8983C601B30141E050E00E9493
:100D9000650DC601B801A5010E94650D87010F5FB1
:100DA0001F4FF7018081882311F07801DDCF198270
:100DB000C601BE016F5F7F4F41E050E00E94650DAC
:100DC00000E011E01B830A83C601B40142E050E059
:100DD0000E94650D1B830A83C601B40142E050E006
:100DE0000E94650D81E090E00F900F900F90CF91E1
:100DF000DF911F910F91FF90EF90DF90CF90BF9008
:100E0000AF909F908F907F906F9008958F929F9258
:100E1000AF92BF92CF92DF92EF92FF920F931F9308
:100E2000DF93CF9300D000D000D0CDB7DEB76C01F8
:100E30007B014A010E949504892B19F001E010E022
:100E400067C0F60122813381448155818091A004DD
:100E50009091A104A091A204B091A304281739078E
:100E60004A075B0719F40EEF1FEF52C018E0A12EDE
:100E7000B12CAC0CBD1C0E94EA129B01AC012F707E
:100E8000307020503C4FC501B9010E94290E8130BD
:100E900019F000E010E03CC089E094E09A83898377
:100EA000F60182819381A481B5818B839C83AD837C
:100EB000BE83C501BE016F5F7F4F45E350E00E94D6
:100EC000850D8C01009709F1C601B7010E945306F8
:100ED0008C010097D1F0C5010E94800D8C01009714
:100EE000A1F0EE24FF24C60168E873E1A4010E948A
:100EF000E9048C010894E11CF11CF3E0EF16F10405
:100F000021F08FEF0F3F180771F3C5010E94140EF7
:100F1000C80126960FB6F894DEBF0FBECDBFCF91A5
:100F2000DF911F910F91FF90EF90DF90CF90BF90D6
:100F3000AF909F908F900895DB01FC0129E034E091
:100F40003183208312962D913D914D915C9115979F
:100F5000228333834483558308950F9384EB94E075
:100F600060E040E020E000E00E9430168CEA94E06F
:100F70000E949A160F9108956F927F928F929F927E
:100F8000AF92BF92CF92DF92EF92FF920F931F9397
:100F90003C015B016A0149018EEC94E00E947012F1
:100FA00089E090E0B50146E050E00E94851082E0C3
:100FB00090E0C80ED91E8FE090E0B60144E050E00A
:100FC0000E9485100E5F1F4F81E090E0B80144E061
:100FD00050E00E948510E2E0F0E0EE0EFF1E85E09A
:100FE00090E0B70144E050E00E948510F401828156
:100FF0009381A481B581F30182839383A483B58314
:101000001F910F91FF90EF90DF90CF90BF90AF9026
:101010009F908F907F906F9008956F927F928F92A4
:101020009F92AF92BF92CF92DF92EF92FF920F9377
:101030001F93DF93CF93CDB7DEB76E970FB6F894BB
:10104000DEBF0FBECDBF4C013B017A0169015801E3
:10105000CE0101966FEF4FEF2FEF00E00E943016A8
:1010600029E034E038872F83F70182819381A481BE
:10107000B58189879A87AB87BC873E872D87F60124
:1010800082819381A481B5818F87988BA98BBA8B3C
:101090003C8B2B8BF50182819381A481B5818D8B53
:1010A0009E8BAF8BB88F3A8F298F8B819C81AD81BE
:1010B000BE818B8F9C8FAD8FBE8FC401B301AE01FB
:1010C000495F5F4F9E01235F3F4F8E010D5E1F4FB3
:1010D000E9E1EE2EF12CEC0EFD1E0E94BC076E968F
:1010E0000FB6F894DEBF0FBECDBFCF91DF911F9139
:1010F0000F91FF90EF90DF90CF90BF90AF909F90B7
:101100008F907F906F900895FC011382128288EE79
:1011100093E0A0E0B0E084839583A683B7838FEA51
:1011200093E09183808364870895DF93CF930F9238
:10113000CDB7DEB7FC016983A081B18112962D91F4
:101140003C911397BE016F5F7F4F41E050E0F90182
:1011500009950F90CF91DF910895CF93DF93EC0124
:1011600007C0E881F9810680F781E02DCE0109955D
:10117000E881F9810480F581E02DCE010995892B64
:1011800081F7DF91CF91089520E0FC0184858430C0
:1011900009F021E0822F08950F938AEB94E060E03C
:1011A00040E020E000E00E9430160F910895FC011D
:1011B0008485843011F480E00895982F80E08D5F5D
:1011C0009B4F0E94AC100895CF93DF93EC018C8568
:1011D000843011F480E019C0CE010E94D708843118
:1011E00091F0882381F0883171F08C3151F4E881DD
:1011F000F9810480F581E02DCE01099520E0892B4D
:1012000019F021E001C020E0822FDF91CF910895F5
:10121000EF92FF920F931F93CF93DF93EC018C8596
:10122000843089F10E94640E0E94EA127B018C01D5
:10123000CE010E94D708882301F10E94EA126E199C
:101240007F09800B910B685E734080409040A8F44A
:1012500061E070E080E090E00E94F812E9CF8C85B8
:101260000E94B60EEC85F0E0EE0FFF1FEC55FB4F31
:101270001182108284E08C8706C0CE010E94D708BC
:10128000882381F3ECCFDF91CF911F910F91FF90D5
:10129000EF9008950F931F93DF93CF930F92CDB7E5
:1012A000DEB78C01DC01ED91FC910480F581E02D2D
:1012B0000995892B19F42FEF3FEF0AC0F8018485B7
:1012C000BE016F5F7F4F0E941B108981282F30E085
:1012D000C9010F90CF91DF911F910F910895FC01EB
:1012E00084850E942A100895DF93CF930F92CDB783
:1012F000DEB7FC018485BE016F5F7F4F41E050E0A7
:101300000E942A10181619061CF02FEF3FEF03C099
:101310008981282F30E0C9010F90CF91DF91089586
:10132000FC016485643019F420E030E005C08EECE7
:1013300094E00E9462119C01C90108950F931F93CC
:10134000CF93DF938C01EA01FC018485843019F48A
:1013500081E090E007C00E94C40F892B39F481E03E
:1013600090E0F80193838283C0E0D0E0CE01DF916A
:10137000CF911F910F910895AF92BF92CF92DF92BC
:10138000EF92FF920F931F93CF93DF937C016B013A
:101390005A01FC018485843009F056C0C0E0D0E0D9
:1013A00003E014E0C8010E94AC10882321F08831CA
:1013B00011F08C3119F4F701C48706C02196005052
:1013C0001F4FC430D10571F7F70124852430E1F1B6
:1013D0008091A3039091A40301969093A40380931A
:1013E000A303892B31F480E094E09093A4038093CD
:1013F000A3034091A3035091A403822F61E020E056
:101400000E94F50E82E090E0C80ED91EF701848597
:10141000B601A5010E94590F09C061E070E080E0AB
:1014200090E00E94F812C7010E94D708882321F497
:1014300084E0F701848708C0C7010E94D70887317C
:1014400061F721E030E002C020E030E0C901DF9127
:10145000CF911F910F91FF90EF90DF90CF90BF90B1
:10146000AF9008956F927F928F929F92AF92BF92AA
:10147000CF92DF92EF92FF920F931F93DF93CF9360
:10148000CDB7DEB7E5970FB6F894DEBF0FBECDBF80
:101490004C015B013A0193E1E92EF12CEC0EFD1EAB
:1014A000C7010E949A16CE014B960E948E0D6E01C6
:1014B0000894C11CD11CC6010E949A168E01095FB6
:1014C0001F4FC8016CEA74E00E949C07C701B80175
:1014D0000E948704C701B501A6010E9406079C016E
:1014E00081309105C9F4D401ED91FC910484F58516
:1014F000E02D89E094E09E878D878B819C81AD8172
:10150000BE818F87988BA98BBA8BC401BE01635FA4
:101510007F4FA30109959C01C901E5960FB6F89488
:10152000DEBF0FBECDBFCF91DF911F910F91FF9016
:10153000EF90DF90CF90BF90AF909F908F907F9073
:101540006F900895FC01138212828BEC93E09183DB
:101550008083758364830895DF93CF930F92CDB713
:10156000DEB7FC016983A081B18112962D913C9177
:101570001397BE016F5F7F4F41E050E0F90109957D
:101580000F90CF91DF9108950F9380EC94E060E08D
:1015900040E020E000E00E9430160F9108958F9205
:1015A0009F92BF92CF92DF92EF92FF920F931F9381
:1015B000DF93CF93CDB7DEB72D970FB6F894DEBF8C
:1015C0000FBECDBF7C0104EA14E088249924BB241B
:1015D0006E010894C11CD11CC6016B2D0E948408A9
:1015E000D8012D913C91F701848195812817390705
:1015F000B1F4C6010E94D708843121F481E0882E1D
:10160000912C0DC0C6010E94D7088C3141F4C6014F
:101610000E949009892B19F4C6010E940809B3940D
:101620000E5F1F4FF4E0BF16B9F6892841F4D701C9
:10163000ED91FC910480F581E02DC70109952D966F
:101640000FB6F894DEBF0FBECDBFCF91DF911F91D3
:101650000F91FF90EF90DF90CF90BF909F908F9071
:1016600008954F925F926F927F928F929F92AF9266
:10167000BF92DF92EF92FF920F931F93DF93CF936E
:10168000CDB7DEB72D970FB6F894DEBF0FBECDBF36
:101690004C012B013A010E94CF0A94EAE92E94E012
:1016A000F92E00E010E0DD245E010894A11CB11CBD
:1016B000C5016D2D0E948408F70120813181F4015C
:1016C000848195812817390761F4C5010E94D708E4
:1016D000873139F4C501B201A3010E949E09080FA8
:1016E000191FD39482E090E0E80EF91E94E0D91619
:1016F000F9F6C8012D960FB6F894DEBF0FBECDBF28
:10170000CF91DF911F910F91FF90EF90DF90BF90ED
:10171000AF909F908F907F906F905F904F900895C3
:101720009F92AF92BF92CF92DF92EF92FF920F9370
:101730001F93DF93CF93CDB7DEB72D970FB6F894F5
:10174000DEBF0FBECDBFC82E992E5B01CB010E941C
:10175000CF0A04EA14E0DD247E010894E11CF11CA8
:10176000C7016D2D0E948408F80120813181F501A7
:10177000848195812817390761F5C7010E94D70830
:10178000873129F0C7010E94D7088C3111F5C701B4
:101790000E949009892BE9F0EC2DF92D8B819C8119
:1017A000938382838D819E81AF81B8858483958365
:1017B000A683B78389859A85AB85BC858087918709
:1017C000A287B3878FEA93E0918380838D85848796
:1017D0000BC0D3940E5F1F4FF4E0DF1609F68C2D7B
:1017E000992D64E00E9484088C2D992D2D960FB6BA
:1017F000F894DEBF0FBECDBFCF91DF911F910F9147
:10180000FF90EF90DF90CF90BF90AF909F900895A2
:10181000CF92DF92EF92FF920F931F93DF93CF93BC
:10182000CDB7DEB72D970FB6F894DEBF0FBECDBF94
:101830006C0100E010E07E010894E11CF11CC7017E
:10184000602F0E948408C7010E94D7088823B1F442
:10185000F60144815581802F61E020E00E94F50E61
:10186000802F0E94740E000F111F0C551B4FF601A4
:1018700084819581F8019183808305C00F5F1F4F9C
:1018800004301105E1F62D960FB6F894DEBF0FBEB9
:10189000CDBFCF91DF911F910F91FF90EF90DF901F
:1018A000CF900895DC01ED91FC91008CF18DE02D3D
:1018B00009950895DB01FC0129E034E031832083A0
:1018C00051962D913D914D915C9154972283338394
:1018D000448355830895FC01858996890895FC0108
:1018E000818D928D0895DF93CF930F92CDB7DEB7A0
:1018F000FC016983A081B18112962D913C911397CF
:10190000BE016F5F7F4F41E050E0F90109950F90F4
:10191000CF91DF910895CF93DF93EC0107C0E88169
:10192000F9810680F781E02DCE010995898D9A8D88
:10193000892BA9F7DF91CF9108950F9386EC94E05E
:1019400060E040E020E000E00E9430160F91089532
:10195000DF93CF930F92CDB7DEB7FC01818D928DCF
:10196000892B19F42FEF3FEF09C08485BE016F5F0B
:101970007F4F0E941B108981282F30E0C9010F90F2
:10198000CF91DF910895CF93DF93EC019A01498DB8
:101990005A8D41155105A1F02417350710F08C859B
:1019A00002C08C85A9010E942A109C0118161906F4
:1019B0003CF4898D9A8D821B930B9A8F898F02C07C
:1019C0002FEF3FEFC901DF91CF9108950F931F9340
:1019D000DF93CF930F92CDB7DEB78C01FC01818DE1
:1019E000928D892BA9F08485BE016F5F7F4F41E006
:1019F00050E00E942A101816190654F4F801818D3F
:101A0000928D0197928F818F8981282F30E002C0BB
:101A10002FEF3FEFC9010F90CF91DF911F910F91F1
:101A20000895EF92FF920F931F93DF93CF93CDB75B
:101A3000DEB728970FB6F894DEBF0FBECDBF8C017E
:101A4000DC01ED91FC910284F385E02D09958EEC8B
:101A500094E0F80164850E946211892B19F420E05A
:101A600030E025C0D8011C968C917E010894E11CC1
:101A7000F11CB70148E050E00E942A109C011816A2
:101A80001906ACF4C8010F96B7010E948D169D810E
:101A900080E02E81820F911DF801968B858B9F81AE
:101AA00080E02885820F911D928F818F9C01C90152
:101AB00028960FB6F894DEBF0FBECDBFCF91DF9151
:101AC0001F910F91FF90EF9008950F931F938C013A
:101AD000FB019A01DC0157966D917C9158971C96F9
:101AE0008C91AF010E94940F9C01F8018789908D21
:101AF000820F931F908F878BC9011F910F910895BB
:101B0000FC0184850E94920E0895FC01108E178AB4
:101B10006E5F7F4F84850E942E0F0895FC01138213
:101B2000128288EE93E0A0E0B0E084839583A683E0
:101B3000B78385ED93E09183808384E08487CF0130
:101B40000F960E949A1608956F927F928F929F929D
:101B5000AF92BF92CF92DF92EF92FF920F931F93BB
:101B6000DF93CF93CDB7DEB7E5970FB6F894DEBF1E
:101B70000FBECDBF4C015B013A0183E1E82EF12C91
:101B8000EC0EFD1EC7010E949A16CE014B960E94D4
:101B90008E0D6E010894C11CD11CC6010E949A16BC
:101BA0008E01095F1F4FC8016CEA74E00E949C0718
:101BB000C701B8010E948704C701B501A6010E94B0
:101BC00006079C0181309105C9F4D401ED91FC9187
:101BD0000088F189E02D89E094E09E878D878B81D4
:101BE0009C81AD81BE818F87988BA98BBA8BC401F4
:101BF000BE01635F7F4FA30109959C01C901E59672
:101C00000FB6F894DEBF0FBECDBFCF91DF911F910D
:101C10000F91FF90EF90DF90CF90BF90AF909F908B
:101C20008F907F906F900895CF93DF93EC018C8518
:101C3000843061F00E94B60EEC85F0E0EE0FFF1FDD
:101C4000EC55FB4F1182108284E08C87DF91CF919D
:101C50000895CF92DF92EF92FF920F931F93CF934D
:101C6000DF937C016B01FC018485843019F5C0E0B1
:101C7000D0E003E014E0C8010E94AC10882311F00A
:101C8000883119F4F701C48706C0219600501F4F10
:101C9000C430D10581F7F7018485843059F0D686A8
:101CA000C586128E118E62E0A60120E00E94F50E1C
:101CB00081E001C080E0DF91CF911F910F91FF90F3
:101CC000EF90DF90CF900895682F8EEC94E048E07D
:101CD00050E00E945E12089590E0982F88278E5F52
:101CE0009B4F0E94AC1008951F93182F982F80E0EF
:101CF0008D5F9B4F0E94AC10833111F080E008C0D3
:101D00008EEC94E0612F42E050E00E945E1281E090
:101D10001F91089590E0982F88278E5F9B4F0E9417
:101D20006B1008951F93182F8EEC94E0612F40E202
:101D300050E00E945E120CC0812F0E946C0E83FF47
:101D400007C0812F68E10E948A0E20E030E00BC0BE
:101D5000812F0E946C0E84FFEFCF812F60E10E94E3
:101D60008A0E21E030E0C9011F9108951F93182FBA
:101D70008EEC94E0612F40E150E00E945E12812FD2
:101D80006FEF0E948A0E1F910895FF920F931F9389
:101D9000F62E672F082F10E00C5F1F4F102F002723
:101DA000C80140960E946B10C80141966F2D0E9499
:101DB0006B101F910F91FF900895FF920F931F9347
:101DC000F62E672F082F10E00C5F1F4F102F0027F3
:101DD000C80104960E946B10C80105966F2D0E94E1
:101DE0006B101F910F91FF900895FF920F931F9317
:101DF000CF93DF93082FF62EEA01122F862F815002
:101E0000853010F080E024C0802F0E94B60E1F297C
:101E100080E0902F9C5F612F0E946B10209719F03B
:101E2000802FBE010BC06091CC047091CD046F5F18
:101E30007F4F7093CD046093CC04802F0E94DD0E01
:101E40008EEC94E0602F41E050E00E945E1281E051
:101E5000DF91CF911F910F91FF9008951F93CF9322
:101E6000DF93182FFB01EA018081882349F48181E7
:101E7000882331F48281882319F48381882391F0A7
:101E8000209781F0912F80E0845F9B4FBF0144E059
:101E900050E00E948510812FBE010E94C50E21E0F6
:101EA00030E002C020E030E0C901DF91CF911F9106
:101EB00008951F93CF93DF93182FFB01EA018081D0
:101EC0008F3F51F481818F3F91F482818F3F79F46C
:101ED00083818F3F61F423C0882349F48181882363
:101EE00031F48281882319F483818823C1F02097FB
:101EF000B1F0912F80E0845F9B4FBF0144E050E040
:101F00000E948510812FBE010E94C50E8EEC94E0C8
:101F1000612F44E050E00E945E1281E001C080E049
:101F2000DF91CF911F910895AF92BF92DF92EF9210
:101F3000FF920F931F93CF93DF93D82EEB015A019B
:101F400089018EEC94E06D2D0E9495118017910708
:101F500010F0780106C08EEC94E06D2D0E94951172
:101F60007C018EEC94E06D2DAE01950187010E94FD
:101F7000CE10C701DF91CF911F910F91FF90EF908D
:101F8000DF90BF90AF900895AF92BF92DF92EF9233
:101F9000FF920F931F93CF93DF93D82E5B018A019B
:101FA00088E04130580710F000E018E0DD2DC0E077
:101FB000CD5FDB4F8EEC94E06D2D0E9495117C017E
:101FC000CE010E94AC10873129F08C3119F000E06D
:101FD00010E003C0E016F10668F38EEC94E06D2D7E
:101FE000A50198010E943F118EEC94E06D2D40E216
:101FF00050E00E945E120BC0CE010E94AC108823FC
:1020000031F48D2D0E94B60E00E010E009C08D2D38
:102010000E946C0E84FFF0CF8D2D60E10E948A0E2D
:10202000C801DF91CF911F910F91FF90EF90DF904A
:10203000BF90AF9008950F93282FAB018EEC94E0E2
:10204000622F21E030E001E00E94131281E090E075
:102050000F910895CF92DF92FF920F931F93CF932A
:10206000DF93F82E6B018A018EEC94E06F2D0E94B5
:102070006211EC01009769F49F2D80E08D5F9B4F0A
:102080000E94AC108431D9F08823C9F08C31B9F0AA
:102090001FC0081719070CF4E8011C161D067CF474
:1020A0008EEC94E06F2DA6019E0100E00E941312B9
:1020B0008EEC94E06F2D40E450E00E945E12CE0161
:1020C000DF91CF911F910F91FF90DF90CF900895F6
:1020D000CFEFDFEFF4CF282F2A9880EF8EBD0DB41D
:1020E00007FEFDCF8EB59EBD0DB407FEFDCF8EB5AC
:1020F0002EBD0DB407FEFDCF8EB56EBD0DB407FE2F
:10210000FDCF8EB52A9A81E00895DC0120E030E011
:1021100090EF1DC02A989EBD0DB407FEFDCF8EB571
:10212000BEBD0DB407FEFDCF8EB5AEBD0DB407FE2E
:10213000FDCF8EB5FB01E20FF31F80818EBD0DB484
:1021400007FEFDCF11968EB52A9A2F5F3F4F2417B9
:10215000350700F3CA010895282F2A988FE08EBD15
:102160000DB407FEFDCF8EB59EBD0DB407FEFDCFAD
:102170008EB52EBD0DB407FEFDCF8EB51EBC0DB4C1
:1021800007FEFDCF8EB52A9A089590E00496982F09
:102190008827860F971F0E94AC1008957F928F9218
:1021A0009F92AF92BF92CF92DF92EF92FF920F93E6
:1021B0001F93CF93DF936C01762E7A01490158016A
:1021C000862F64E270E00E94C510182F872D65E20B
:1021D00070E00E94C510C82FD0E0912F80E0C82B7E
:1021E000D92BCE0DDF1DAE015770872D90E0880FE3
:1021F000991FC80ED91EF60120813181240F351F89
:10220000CA018A0D9B1D8150984098F000E018E0AB
:10221000041B150BC901B401A8010E948510A5017A
:10222000401B510BF60180819181080D191DB801E9
:1022300003C0C901B401A5010E9485107E01EA0C0A
:10224000FB1C072D10E00C5F1F4F102F0027C8014B
:1022500084966F2D0E946B10C80185966E2D0E948A
:102260006B10DF91CF911F910F91FF90EF90DF9056
:10227000CF90BF90AF909F908F907F9008950F93D5
:102280001F93FA01890140E050E09F010E94CE10A7
:102290001F910F9108950F931F93182F66E270E01E
:1022A0000E94C510082F812F67E270E00E94C510C0
:1022B000502F40E0282F30E0242B352BC9011F91EF
:1022C0000F910895FF920F931F93CF93DF93F62EF4
:1022D000C0E0D0E08F2D0E944B118C01009721F0BF
:1022E0008F2D0E944B11EC01C017D10799F7CE0139
:1022F000DF91CF911F910F91FF9008950F931F933E
:10230000182F60E270E00E94C510082F812F61E253
:1023100070E00E94C510502F40E0282F30E0242BA1
:10232000352BC9011F910F910895FF920F931F93B1
:10233000CF93DF93F62EC0E0D0E08F2D0E947E1168
:102340008C01009721F08F2D0E947E11EC01C017A7
:10235000D10799F7CE01DF91CF911F910F91FF9097
:102360000895DC0120E030E09FE01DC02A989EBD6A
:102370000DB407FEFDCF8EB5BEBD0DB407FEFDCF7B
:102380008EB5AEBD0DB407FEFDCF8EB51EBC0DB42F
:1023900007FEFDCF11968EB5FB01E20FF31F808380
:1023A0002A9A2F5F3F4F2417350700F3CA0108957B
:1023B000CF92DF92EF92FF920F931F93CF93DF9311
:1023C000690178015770C62FD0E02496CC0FDD1F2D
:1023D000C80FD91F28813981240F351FC801840FE8
:1023E000951F8150984088F000E018E0041B150B01
:1023F000C901B601A8010E94B111E01AF10A888151
:1024000099810C0D1D1DB80102C0C901B601A701BB
:102410000E94B111DF91CF911F910F91FF90EF902A
:10242000DF90CF9008958F929F92AF92BF92CF92FC
:10243000DF92EF92FF920F931F93CF93DF937C0174
:10244000A62E6A014901B02E862F68E270E00E9434
:10245000C510182F8A2D69E270E00E94C510C82FA0
:10246000D0E0912F80E0C82BD92BC7016A2DAE0197
:10247000960184010E94D811BB2099F47E01E80CDA
:10248000F91C0A2D10E00C5F1F4F102F0027C80108
:1024900088966F2D0E946B10C80189966E2D0E9440
:1024A0006B10DF91CF911F910F91FF90EF90DF9014
:1024B000CF90BF90AF909F908F9008951F93162F4D
:1024C000962F80E08F5F9B4F642F0E946B10812FAF
:1024D00061E070E00E94C5108823C9F71F9108953C
:1024E0000F931F93182F092F6CE271E080E090E0AA
:1024F0000E94F8120E946504229A80E090E060E851
:102500000E946B108BE190E065E50E946B108AE100
:1025100090E065E50E946B10212F302FC901FC016E
:1025200080E090E4918380838050904E91878087F3
:1025300080509841329620E68030920799F71F919B
:102540000F9108951F920F920FB60F9211242F939F
:102550003F938F939F93AF93BF938091E2049091A9
:10256000E304A091E404B091E5043091E6040196FF
:10257000A11DB11D232F2D5F2D3720F02D57019662
:10258000A11DB11D2093E6048093E2049093E3041F
:10259000A093E404B093E5048091DE049091DF04FD
:1025A000A091E004B091E1040196A11DB11D8093BA
:1025B000DE049093DF04A093E004B093E104BF91A4
:1025C000AF919F918F913F912F910F900FBE0F90E0
:1025D0001F9018958FB7F8942091E2043091E3048E
:1025E0004091E4045091E5048FBFB901CA010895F8
:1025F0009B01AC017FB7F8948091DE049091DF04D9
:10260000A091E004B091E10466B5A89B05C06F3FBE
:1026100019F00196A11DB11D7FBFBA2FA92F982FC8
:102620008827860F911DA11DB11D62E0880F991F9B
:10263000AA1FBB1F6A95D1F7BC012DC0FFB7F89444
:102640008091DE049091DF04A091E004B091E10458
:10265000E6B5A89B05C0EF3F19F00196A11DB11D7D
:10266000FFBFBA2FA92F982F88278E0F911DA11D6C
:10267000B11DE2E0880F991FAA1FBB1FEA95D1F791
:10268000861B970B885E9340C8F221503040404033
:10269000504068517C4F211531054105510571F6B7
:1026A0000895789484B5826084BD84B5816084BDCA
:1026B00085B5826085BD85B5816085BDEEE6F0E0BB
:1026C000808181608083E1E8F0E010828081826017
:1026D0008083808181608083E0E8F0E08081816098
:1026E0008083E1EBF0E0808184608083E0EBF0E0C8
:1026F000808181608083EAE7F0E08081846080836C
:102700008081826080838081816080838081806815
:1027100080831092C1000895CF93DF93482F50E03B
:10272000CA0186569F4FFC0134914A575F4FFA0108
:102730008491882369F190E0880F991FFC01E85982
:10274000FF4FA591B491FC01EE58FF4FC591D49174
:10275000662351F42FB7F8948C91932F9095892389
:102760008C93888189230BC0623061F42FB7F89471
:102770008C91932F909589238C938881832B8883C8
:102780002FBF06C09FB7F8948C91832B8C939FBF6B
:10279000DF91CF910895482F50E0CA0182559F4F95
:1027A000FC012491CA0186569F4FFC0194914A571F
:1027B0005F4FFA013491332309F440C0222351F1D1
:1027C000233071F0243028F42130A1F0223011F5AB
:1027D00014C02630B1F02730C1F02430D9F404C041
:1027E000809180008F7703C0809180008F7D8093DF
:1027F000800010C084B58F7702C084B58F7D84BD02
:1028000009C08091B0008F7703C08091B0008F7DA8
:102810008093B000E32FF0E0EE0FFF1FEE58FF4F64
:10282000A591B4912FB7F894662321F48C919095DB
:10283000892302C08C91892B8C932FBF0895089512
:102840001F920F920FB60F9211242F933F934F9325
:102850008F939F93EF93FF938091C00082FD1DC0E3
:102860004091C60020912705309128052F5F3F4FEA
:102870002F7330708091290590912A052817390708
:1028800071F0E0912705F0912805E951FB4F408355
:10289000309328052093270502C08091C600FF9140
:1028A000EF919F918F914F913F912F910F900FBE7C
:1028B0000F901F901895E0917B05F0917C05E05CEE
:1028C000FF4F8191919120813181821B930B8F73F6
:1028D0009070892B11F00E941F1408951F920F927F
:1028E0000FB60F9211242F933F938F939F93EF93E3
:1028F000FF9320916B0530916C0580916D0590914F
:102900006E052817390731F48091C1008F7D8093BF
:10291000C10014C0E0916D05F0916E05E55DFA4FC0
:10292000208180916D0590916E0501968F73907056
:1029300090936E0580936D052093C600FF91EF91F3
:102940009F918F913F912F910F900FBE0F901F90ED
:102950001895AF92BF92DF92EF92FF920F931F9361
:10296000CF93DF93EC017A018B01DD24403081EEBF
:10297000580780E0680780E0780711F0DD24D394E1
:1029800091E0A92EB12CEC89FD89DD2069F0C5010B
:1029900008A002C0880F991F0A94E2F7808360E0C4
:1029A00079E08DE390E005C0108260E874E88EE184
:1029B00090E0A80197010E94CA1B2150304040407E
:1029C0005040569547953795279580E12030380738
:1029D00020F0DD2011F0DD24D6CFE889F98930839D
:1029E000EA89FB89208319A2EE89FF89408121E0D1
:1029F00030E0C9010C8C02C0880F991F0A94E2F7DD
:102A0000482B4083EE89FF894081C9010D8C02C0AB
:102A1000880F991F0A94E2F7482B4083EE89FF89BB
:102A20004081C9010E8C02C0880F991F0A94E2F7F9
:102A3000482B4083EE89FF8980810F8C02C0220FD2
:102A4000331F0A94E2F7209528232083DF91CF914A
:102A50001F910F91FF90EF90DF90BF90AF9008957E
:102A6000DC011C96ED91FC911D97E05CFF4F2191DC
:102A7000319180819181281B390B2F733070C901EE
:102A80000895DC011C96ED91FC911D97E05CFF4FD1
:102A900020813181E054F040DF01AE5BBF4F8D916A
:102AA0009C9111972817390719F42FEF3FEF07C0B2
:102AB0008D919C91E80FF91F8081282F30E0C9018A
:102AC0000895DC011C96ED91FC911D97E05CFF4F91
:102AD00020813181E054F040DF01AE5BBF4F8D912A
:102AE0009C9111972817390719F42FEF3FEF10C069
:102AF0008D919C911197E80FF91F20818D919C91E8
:102B0000119701968F73907011969C938E9330E07D
:102B1000C9010895DC0191968C919197882339F031
:102B20005496ED91FC915597808186FFF9CF91964F
:102B30001C920895CF93DF93EC01EE85FF85E05C56
:102B4000FF4F20813181E054F0402F5F3F4F2F73C2
:102B50003070DF01AE5BBF4F8D919C9111972817AC
:102B60003907D1F3E05CFF4F80819181E054F04060
:102B7000E80FF91F6083EE85FF85E05CFF4F31832E
:102B80002083EE89FF89208181E090E00F8C02C0D4
:102B9000880F991F0A94E2F7282B208381E089A3EC
:102BA000EC89FD8980818064808381E090E0DF9101
:102BB000CF910895109272051092710588EE93E0FE
:102BC000A0E0B0E08093730590937405A093750521
:102BD000B093760589EF93E09093700580936F052D
:102BE00087EE94E090937C0580937B058BE295E0E3
:102BF00090937E0580937D0585EC90E09093800511
:102C000080937F0584EC90E090938205809381050A
:102C100080EC90E0909384058093830581EC90E0B4
:102C2000909386058093850582EC90E090938805CB
:102C30008093870586EC90E090938A0580938905C0
:102C400084E080938B0583E080938C0587E08093FC
:102C50008D0585E080938E0581E080938F05089532
:102C60000F93FC0189E094E0918380836283438326
:102C7000248305830F91089589E094E09093920551
:102C800080939105109293051092940510929505EA
:102C90001092960508958F929F92AF92BF92CF9215
:102CA000DF92EF92FF920F931F93CF93DF934C012C
:102CB0006B017C01AA24BB24C0E0D0E0C601F7016F
:102CC00062814AE050E00E94A8178C01C6016EE2C2
:102CD0000E94DD16080F191FA00EB11E2196089440
:102CE000E11CF11CC330D10549F7C601F40165812F
:102CF0004AE050E00E94A8179501280F391FC9012A
:102D0000DF91CF911F910F91FF90EF90DF90CF90C7
:102D1000BF90AF909F908F9008959C01FB018081A0
:102D20009181A281B381F90182839383A483B583C6
:102D3000C9010895FC0189E094E0918380831282A7
:102D40001382148215820895CF93DF930E9451134A
:102D50000E94F703CBE5D4E10E948D032097E1F3B5
:102D60000E945B14F9CFCF92DF92EF92FF920F9304
:102D70001F93CF93DF937C016B018A01C0E0D0E009
:102D80000FC0D6016D916D01D701ED91FC910190BD
:102D9000F081E02DC7010995C80FD91F01501040DF
:102DA0000115110571F7CE01DF91CF911F910F91A0
:102DB000FF90EF90DF90CF900895DC01ED91FC91B2
:102DC0000190F081E02D09950895EF92FF920F9305
:102DD0001F938C01DC01ED91FC910190F081E02DBD
:102DE0006DE009957C01D801ED91FC910190F08195
:102DF000E02DC8016AE009959C012E0D3F1DC90117
:102E00001F910F91FF90EF900895CF93DF93EC0106
:102E10006115710519F420E030E00FC0DB010D9061
:102E20000020E9F71197A61BB70BE881F981028012
:102E3000F381E02DAD0109959C01C901DF91CF918E
:102E400008954F925F927F928F929F92AF92BF921E
:102E5000CF92DF92EF92FF920F931F93DF93CF9366
:102E6000CDB7DEB7A1970FB6F894DEBF0FBECDBFCA
:102E70002C01742ECB01223008F42AE019A231E291
:102E8000C32ED12CCC0EDD1E822E9924AA24BB2465
:102E9000672D752FA50194010E94CA1B79018A0133
:102EA000C801B701A50194010E94AB1B472D461B29
:102EB0000894C108D1084A3014F4405D01C0495C4F
:102EC000F6014083E114F1040105110521F07E2C87
:102ED0005F2DC801DDCFC201B6010E940517A19682
:102EE0000FB6F894DEBF0FBECDBFCF91DF911F911B
:102EF0000F91FF90EF90DF90CF90BF90AF909F9099
:102F00008F907F905F904F900895DC0121153105DF
:102F100041F4ED91FC910190F081E02D642F099531
:102F200008950E9421170895EF92FF920F931F9327
:102F30007C010E9485178C01C7010E94E5169C0147
:102F4000200F311FC9011F910F91FF90EF9008953D
:102F5000EF92FF920F931F939A01E62EFF2400E059
:102F600010E0B801A7010E9485171F910F91FF90F3
:102F7000EF900895CF92DF92EF92FF920F931F93FD
:102F8000CF93DF93EC016A017B012115310541F4F8
:102F9000E881F9810190F081E02D642F09951FC02F
:102FA0002A303105D1F477FF17C0E881F98101900B
:102FB000F081E02D6DE209958C0144275527BA0177
:102FC0004C195D096E097F09CE012AE00E94211784
:102FD0009801280F391F04C02AE00E9421179C0184
:102FE000C901DF91CF911F910F91FF90EF90DF907A
:102FF000CF900895EF92FF920F931F937C010E9450
:10300000BA178C01C7010E94E5169C01200F311FE1
:10301000C9011F910F91FF90EF900895EF92FF92D9
:103020000F931F937C010E9405178C01C7010E941A
:10303000E516080F191FC8011F910F91FF90EF901F
:103040000895AF92BF92CF92DF92EF92FF920F93CB
:103050001F93CF93DF935C016B01EE24FF24C0E04C
:10306000D0E010C0D501ED91FC9100811181C60125
:10307000BE010E946F18682FC501F8010995E80E7E
:10308000F91E2196F60184819581C817D90750F35E
:10309000C701DF91CF911F910F91FF90EF90DF90CB
:1030A000CF90BF90AF900895EF92FF920F931F9330
:1030B0007C010E9421188C01C7010E94E5169C0129
:1030C000200F311FC9011F910F91FF90EF900895BC
:1030D00070E0382F20E0622B732BCB010895FC01A8
:1030E000848195816817790748F40190F081E02D7B
:1030F000309721F0E60FF71F8081089580E0089552
:10310000CF93DF93FC01DB01848195814817590738
:1031100060F4C081D1816D917C91CE01840F951FA7
:103120000E94A5009C01009719F42FEF3FEF02C009
:103130002C1B3D0BC901DF91CF91089540E050E079
:103140000E94801808950F931F93CF93DF93EC0193
:103150008B016F5F7F4F888199810E94CA1A009707
:1031600011F480E005C0998388831B830A8381E082
:10317000DF91CF911F910F910895CF93DF93EC01D1
:1031800088819981892B29F08A819B8186179707ED
:1031900060F4CE010E94A318882341F08C819D81A8
:1031A000892B19F4E881F981108281E0DF91CF91B8
:1031B0000895EF92FF920F931F93CF93DF93EC014B
:1031C0007B016C817D81E114F104C1F04115510551
:1031D00099F08A01060F171FB8010E94BD188823B5
:1031E00069F0888199812C813D81820F931FB701FD
:1031F0000E949E001D830C8381E001C080E0DF916E
:10320000CF911F910F91FF90EF900895DF93CF938F
:1032100000D0CDB7DEB769831A82BE016F5F7F4FE2
:1032200041E050E00E94D9180F900F90CF91DF91AC
:1032300008956115710511F480E00895DB010D908A
:103240000020E9F71197A61BB70BAD010E94D91812
:103250000895CF93DF93EC0188819981009711F055
:103260000E94321A198218821D821C821B821A82C5
:10327000DF91CF910895EF92FF920F931F93CF9319
:10328000DF93EC017B018A01BA010E94BD188823FB
:1032900021F4CE010E94291907C01D830C83888167
:1032A0009981B7010E949E00CE01DF91CF911F91BD
:1032B0000F91FF90EF900895CF93DF93EC01198267
:1032C00018821B821A821D821C821E826115710562
:1032D00051F0DB010D900020E9F71197A61BB70B09
:1032E000AD010E943B19DF91CF9108950F931F9379
:1032F000182F092F6115710559F0DB010D90002081
:10330000E9F71197A61BB70BAD010E943B1902C04C
:103310000E942919812F902F1F910F910895FC0170
:10332000808191810E94321A08950F931F93CF9349
:10333000DF93BC018230910510F462E070E0E0910F
:103340009905F0919A0540E050E0A0E0B0E024C07B
:103350008081918186179707D0F08617970771F4BF
:1033600082819381109729F013969C938E931297E4
:103370002CC090939A058093990527C0411551055B
:1033800019F08417950718F48D01AC01EF01DF01E6
:10339000828193819C01F9013097D1F64115510545
:1033A000F9F0CA01861B970B8430910580F48A815D
:1033B0009B810115110521F0F8019383828304C0DC
:1033C00090939A0580939905FE01329645C0FE01BF
:1033D000E80FF91F619371930297998388833CC02A
:1033E0008091970590919805892B41F48091A703CE
:1033F0009091A80390939805809397054091A90315
:103400005091AA034115510541F44DB75EB7809123
:10341000A5039091A603481B590B20919705309165
:10342000980524173507B0F4CA01821B930B861741
:10343000970780F0AB014E5F5F4F8417950750F000
:10344000420F531F5093980540939705F9016193DC
:10345000719302C0E0E0F0E0CF01DF91CF911F91C6
:103460000F910895CF93DF939C01009709F48FC0CB
:10347000EC0122971B821A826091990570919A053E
:103480006115710581F488819981820F931F2091C4
:103490009705309198052817390739F5D093980585
:1034A000C093970574C0DB0140E050E0AC17BD0746
:1034B00008F1BB83AA83FE0121913191E20FF31F32
:1034C000AE17BF0779F48D919C911197280F391F82
:1034D0002E5F3F4F3983288312968D919C911397CD
:1034E0009B838A834115510571F4D0939A05C0934B
:1034F00099054DC012968D919C911397AD0100973F
:1035000011F0DC01D3CFDA011396DC93CE9312973E
:10351000FA0121913191E20FF31FCE17DF0769F411
:1035200088819981280F391F2E5F3F4FFA0131831F
:1035300020838A819B8193838283E0E0F0E0DB013A
:1035400012968D919C911397009719F0BC01FD0183
:10355000F6CFAB014E5F5F4FDB018D919C91840FE5
:10356000951F20919705309198052817390779F410
:10357000309729F410929A051092990502C013828F
:103580001282425050405093980540939705DF9126
:10359000CF9108956F927F928F929F92AF92BF9238
:1035A000CF92DF92EF92FF920F931F93CF93DF930F
:1035B0008C01009729F4CB010E9495198C01BBC0A6
:1035C0008EEFE82E8FEFF82EE00EF11E4801860EEA
:1035D000971E8E149F0408F4ACC0D7014D915C91E6
:1035E000119746175707B8F04530510508F4A3C0A6
:1035F000CA0104978617970708F49DC042505040AF
:10360000461B570BF401419351936D937C93CF016B
:103610000E94321A90C05B01A41AB50A3801640EE8
:10362000751EA0919905B0919A05E0E0F0E0CC24D8
:10363000DD2447C0A615B705A9F5CD91DC911197FA
:10364000CE0102968A159B0568F1CE018A199B0965
:10365000029612962C91129713963C91059758F06A
:10366000F40122833383CA19DB09D183C083D701D4
:103670006D937C9309C04E5F5F4F4C0F5D1FF70148
:1036800051834083C901FC01C114D10431F0D6013A
:103690001396FC93EE9312974EC0F0939A05E09325
:1036A000990549C08D919C911197E817F90708F485
:1036B000FC016D0112968C91129713969C919C01BE
:1036C000D901109709F0B6CF809197059091980590
:1036D00086159705E9F4E617F707D0F42091A903BA
:1036E0003091AA032115310541F42DB73EB78091E1
:1036F000A5039091A603281B390B82169306C8F4E4
:103700009092980580929705F7017183608313C0AA
:10371000CB010E949519EC01009759F0D7014D910A
:103720005C91B8010E949500C8010E94321A8E0176
:1037300002C000E010E0C801DF91CF911F910F910E
:10374000FF90EF90DF90CF90BF90AF909F908F90C1
:103750007F906F900895629FD001739FF001829FC8
:10376000E00DF11D649FE00DF11D929FF00D839F10
:10377000F00D749FF00D659FF00D9927729FB00DAD
:10378000E11DF91F639FB00DE11DF91FBD01CF01C0
:1037900011240895A1E21A2EAA1BBB1BFD010DC026
:1037A000AA1FBB1FEE1FFF1FA217B307E407F507F1
:1037B00020F0A21BB30BE40BF50B661F771F881FCD
:1037C000991F1A9469F760957095809590959B0163
:1037D000AC01BD01CF010895EE0FFF1F0590F491DC
:1037E000E02D099410E0C4EDD0E004C0FE010E9479
:0E37F000EE1B2296C63DD107C9F7F894FFCF15
:1037FE0000636F6E6E65637465640045484C4F00E0
:10380E0041555448204C4F47494E0063323931627E
:10381E006D526E64586C68626D52356345426E62CD
:10382E005746706243356A6232303D005957356BE8
:10383E00626E41354E7A49354E6A553D004D4149CD
:10384E004C2046524F4D3A3C736F756E64677579D6
:10385E00616E64797040676D61696C2E636F6D3E49
:10386E00005243505420544F3A3C74706174746546
:10387E0072736F6E4073656C636F656E672E636FE8
:10388E006D3E00444154410066726F6D3A736F7520
:10389E006E64677579616E64797040676D61696C8D
:1038AE002E636F6D00746F3A747061747465727309
:1038BE006F6E4073656C636F656E672E636F6D0020
:1038CE005355424A4543543A204175746F6D6174A5
:1038DE0065642047617261676500546865206761A1
:1038EE007261676520646F6F72206973206F7065F7
:1038FE006E00706C65617365207669736974203132
:10390E0039322E3136382E312E31373720746F2022
:10391E00636C6F7365002E005155495400666169E2
:10392E006C6564004C4544323D4761726167652B9E
:10393E00446F6F72003C21444F43545950452068E8
:10394E00746D6C3E003C68746D6C3E003C68656145
:10395E00643E003C7469746C653E476172616765D4
:10396E00204D6F64756C653C2F7469746C653E00F8
:10397E003C2F686561643E003C626F64793E003C9A
:10398E0068313E47617261676520446F6F72204FE8
:10399E0070656E65723C2F68313E003C703E507211
:1039AE0065737320746F206F70656E2F636C6F7309
:1039BE00652067617261676520646F6F722E3C2FA0
:1039CE00703E003C666F726D206D6574686F643D6D
:1039DE0027676574273E003C696E70757420747994
:1039EE0070653D27636865636B626F7827206E6133
:1039FE006D653D274C454432272076616C75653DDB
:103A0E002747617261676520446F6F7227206F6E62
:103A1E00636C69636B3D277375626D697428293B0E
:103A2E00273E003C2F666F726D3E003C2F626F6426
:103A3E00793E003C2F68746D6C3E0068617665209F
:103A4E00636C69656E7400485454502F312E3120CA
:103A5E00323030204F4B00436F6E74656E742D54B0
:103A6E007970653A20746578742F68746D6C0043B4
:103A7E006F6E6E656374696F6E3A20636C6F7365FB
:103A8E000068656C6C6F00DEADBEEFFEED0100FFF1
:103A9E00FFFF7F000480009B0500000000000095E2
:103AAE00089E09900974094A09AD08BC09320A6FCB
:103ABE00090809E408C40800000000AC0A310B082C
:103ACE000C00000000730C650D6F0CE60CA80C8B3F
:103ADE000C290E140E850DA40D800D110DC30C5264
:103AEE000C5A0C6B0C000000009A15B316301561C1
:0C3AFE001541158A15000000004B160051
:00000001FF
